{
    "contractName": "SwapperV2",
    "abi": [
        {
            "inputs": [],
            "name": "balancerRegistry",
            "outputs": [
                {
                    "internalType": "contract IBRegistry",
                    "name": "",
                    "type": "address"
                }
            ],
            "stateMutability": "view",
            "type": "function"
        },
        {
            "inputs": [
                {
                    "internalType": "address payable",
                    "name": "_recipient",
                    "type": "address"
                }
            ],
            "name": "initialize",
            "outputs": [],
            "stateMutability": "payable",
            "type": "function"
        },
        {
            "inputs": [],
            "name": "recipient",
            "outputs": [
                {
                    "internalType": "address payable",
                    "name": "",
                    "type": "address"
                }
            ],
            "stateMutability": "view",
            "type": "function"
        },
        {
            "inputs": [
                {
                    "internalType": "address",
                    "name": "to",
                    "type": "address"
                }
            ],
            "name": "swap2",
            "outputs": [],
            "stateMutability": "payable",
            "type": "function"
        },
        {
            "inputs": [],
            "name": "uniswapRouter",
            "outputs": [
                {
                    "internalType": "contract IUniswapV2Router",
                    "name": "",
                    "type": "address"
                }
            ],
            "stateMutability": "view",
            "type": "function"
        }
    ],
    "bytecode": "608060405234801561001057600080fd5b50610d59806100206000396000f3fe60806040526004361061004a5760003560e01c80635e0092fc1461004f57806366d003ac1461008b578063735de9f7146100ab578063b8e22c13146100d1578063c4d66de8146100e6575b600080fd5b34801561005b57600080fd5b5060015461006f906001600160a01b031681565b6040516001600160a01b03909116815260200160405180910390f35b34801561009757600080fd5b5060025461006f906001600160a01b031681565b3480156100b757600080fd5b5060005461006f906201000090046001600160a01b031681565b6100e46100df3660046109ef565b6100f9565b005b6100e46100f43660046109ef565b6107f9565b6000610107346103e8610918565b90506000610115348361092b565b604080516002808252606082018352929350600092909160208301908036833701905050905073c02aaa39b223fe8d0a0e5c4f27ead9083c756cc28160008151811061017157634e487b7160e01b600052603260045260246000fd5b60200260200101906001600160a01b031690816001600160a01b03168152505083816001815181106101b357634e487b7160e01b600052603260045260246000fd5b6001600160a01b0392831660209182029290920101526001548251600092919091169063bfdbfc4390849084906101fa57634e487b7160e01b600052603260045260246000fd5b60200260200101518460018151811061022357634e487b7160e01b600052603260045260246000fd5b60209081029190910101516040516001600160e01b031960e085901b1681526001600160a01b039283166004820152911660248201526001604482015260640160006040518083038186803b15801561027b57600080fd5b505afa15801561028f573d6000803e3d6000fd5b505050506040513d6000823e601f3d908101601f191682016040526102b79190810190610a0b565b90506000816000815181106102dc57634e487b7160e01b600052603260045260246000fd5b6020026020010151905060006103b985600060029054906101000a90046001600160a01b03166001600160a01b031663d06ca61f88886040518363ffffffff1660e01b815260040161032f929190610be1565b60006040518083038186803b15801561034757600080fd5b505afa15801561035b573d6000803e3d6000fd5b505050506040513d6000823e601f3d908101601f191682016040526103839190810190610aac565b6001815181106103a357634e487b7160e01b600052603260045260246000fd5b602002602001015161091890919063ffffffff16565b90506103e96040518060400160405280600d81526020016c0616d6f756e74556e697377617609c1b815250610937565b6103f28161097d565b6000826001600160a01b03166315e84af98660008151811061042457634e487b7160e01b600052603260045260246000fd5b60200260200101518760018151811061044d57634e487b7160e01b600052603260045260246000fd5b60200260200101516040518363ffffffff1660e01b81526004016104879291906001600160a01b0392831681529116602082015260400190565b60206040518083038186803b15801561049f57600080fd5b505afa1580156104b3573d6000803e3d6000fd5b505050506040513d601f19601f820116820180604052508101906104d79190610b53565b905060006104e58783610918565b90506105166040518060400160405280600e81526020016d30b6b7bab73a2130b630b731b2b960911b815250610937565b61051f8161097d565b828111156107b35760008660008151811061054a57634e487b7160e01b600052603260045260246000fd5b60200260200101519050806001600160a01b031663d0e30db0896040518263ffffffff1660e01b81526004016000604051808303818588803b15801561058f57600080fd5b505af11580156105a3573d6000803e3d6000fd5b5050505050806001600160a01b031663095ea7b3876000815181106105d857634e487b7160e01b600052603260045260246000fd5b60200260200101518a6040518363ffffffff1660e01b81526004016106129291906001600160a01b03929092168252602082015260400190565b602060405180830381600087803b15801561062c57600080fd5b505af1158015610640573d6000803e3d6000fd5b505050506040513d601f19601f820116820180604052508101906106649190610b33565b50600080866001600160a01b0316638201aa3f8a60008151811061069857634e487b7160e01b600052603260045260246000fd5b60200260200101518c8c6001815181106106c257634e487b7160e01b600052603260045260246000fd5b6020026020010151886106ea60646106e4606e8e6109c290919063ffffffff16565b90610918565b6040516001600160e01b031960e088901b1681526001600160a01b03958616600482015260248101949094529390911660448301526064820152608481019190915260a4016040805180830381600087803b15801561074857600080fd5b505af115801561075c573d6000803e3d6000fd5b505050506040513d601f19601f820116820180604052508101906107809190610b6b565b915091506000896000815181106107a757634e487b7160e01b600052603260045260246000fd5b506107b3945050505050565b6002546040516001600160a01b039091169089156108fc02908a906000818181858888f193505050501580156107ed573d6000803e3d6000fd5b50505050505050505050565b600054610100900460ff1680610812575060005460ff16155b6108795760405162461bcd60e51b815260206004820152602e60248201527f496e697469616c697a61626c653a20636f6e747261637420697320616c72656160448201526d191e481a5b9a5d1a585b1a5e995960921b606482015260840160405180910390fd5b600054610100900460ff1615801561089b576000805461ffff19166101011790555b60018054737226daaf09b3972320db05f5ab81ff38417dd6876001600160a01b0319918216179091556000805462010000600160b01b031916757a250d5630b4cf539739df2c5dacb4c659f2488d0000179055600280549091166001600160a01b0384161790558015610914576000805461ff00191690555b5050565b60006109248284610c8c565b9392505050565b60006109248284610ccb565b61097a8160405160240161094b9190610b8e565b60408051601f198184030181529190526020810180516001600160e01b031663104c13eb60e21b1790526109ce565b50565b61097a8160405160240161099391815260200190565b60408051601f198184030181529190526020810180516001600160e01b031663f5b1bba960e01b1790526109ce565b60006109248284610cac565b80516a636f6e736f6c652e6c6f67602083016000808483855afa5050505050565b600060208284031215610a00578081fd5b813561092481610d0e565b60006020808385031215610a1d578182fd5b825167ffffffffffffffff811115610a33578283fd5b8301601f81018513610a43578283fd5b8051610a56610a5182610c68565b610c37565b80828252848201915084840188868560051b8701011115610a75578687fd5b8694505b83851015610aa0578051610a8c81610d0e565b835260019490940193918501918501610a79565b50979650505050505050565b60006020808385031215610abe578182fd5b825167ffffffffffffffff811115610ad4578283fd5b8301601f81018513610ae4578283fd5b8051610af2610a5182610c68565b80828252848201915084840188868560051b8701011115610b11578687fd5b8694505b83851015610aa0578051835260019490940193918501918501610b15565b600060208284031215610b44578081fd5b81518015158114610924578182fd5b600060208284031215610b64578081fd5b5051919050565b60008060408385031215610b7d578081fd5b505080516020909101519092909150565b6000602080835283518082850152825b81811015610bba57858101830151858201604001528201610b9e565b81811115610bcb5783604083870101525b50601f01601f1916929092016040019392505050565b60006040820184835260206040818501528185518084526060860191508287019350845b81811015610c2a5784516001600160a01b031683529383019391830191600101610c05565b5090979650505050505050565b604051601f8201601f1916810167ffffffffffffffff81118282101715610c6057610c60610cf8565b604052919050565b600067ffffffffffffffff821115610c8257610c82610cf8565b5060051b60200190565b600082610ca757634e487b7160e01b81526012600452602481fd5b500490565b6000816000190483118215151615610cc657610cc6610ce2565b500290565b600082821015610cdd57610cdd610ce2565b500390565b634e487b7160e01b600052601160045260246000fd5b634e487b7160e01b600052604160045260246000fd5b6001600160a01b038116811461097a57600080fdfea2646970667358221220d55614e749dd82494272fbda3cf3d4c33bebb8acf226f0cec14da1b3326b635d64736f6c63430008040033",
    "sourcePath": "/home/manuel/Escritorio/Assignment/swap_assignment/contracts/SwapperV2.sol",
    "compiler": {
        "name": "solc",
        "version": "0.8.4+commit.c7e474f2"
    },
    "functionHashes": {
        "balancerRegistry()": "5e0092fc",
        "initialize(address)": "c4d66de8",
        "recipient()": "66d003ac",
        "swap2(address)": "b8e22c13",
        "uniswapRouter()": "735de9f7"
    },
    "gasEstimates": {
        "creation": {
            "codeDepositCost": "683400",
            "executionCost": "715",
            "totalCost": "684115"
        },
        "external": {
            "balancerRegistry()": "1003",
            "initialize(address)": "107035",
            "recipient()": "1025",
            "swap2(address)": "infinite",
            "uniswapRouter()": "1058"
        }
    }
}